{
  "_format": "hh3-artifact-1",
  "contractName": "ErnestMerkleAnchor",
  "sourceName": "contracts/ErnestMerkleAnchor.sol",
  "abi": [
    {
      "anonymous": false,
      "inputs": [
        {
          "indexed": true,
          "internalType": "address",
          "name": "org",
          "type": "address"
        },
        {
          "indexed": false,
          "internalType": "bytes32",
          "name": "merkleRoot",
          "type": "bytes32"
        },
        {
          "indexed": true,
          "internalType": "string",
          "name": "organizationId",
          "type": "string"
        },
        {
          "indexed": false,
          "internalType": "string",
          "name": "organizationName",
          "type": "string"
        },
        {
          "indexed": false,
          "internalType": "string",
          "name": "domain",
          "type": "string"
        },
        {
          "indexed": false,
          "internalType": "uint256",
          "name": "timestamp",
          "type": "uint256"
        }
      ],
      "name": "Anchored",
      "type": "event"
    },
    {
      "inputs": [
        {
          "internalType": "bytes32",
          "name": "root",
          "type": "bytes32"
        },
        {
          "internalType": "string",
          "name": "organizationId",
          "type": "string"
        },
        {
          "internalType": "string",
          "name": "organizationName",
          "type": "string"
        },
        {
          "internalType": "string",
          "name": "domain",
          "type": "string"
        }
      ],
      "name": "anchorRoot",
      "outputs": [],
      "stateMutability": "nonpayable",
      "type": "function"
    }
  ],
  "bytecode": "0x6080604052348015600e575f5ffd5b506102488061001c5f395ff3fe608060405234801561000f575f5ffd5b5060043610610029575f3560e01c8063b08e54ba1461002d575b5f5ffd5b61004061003b3660046100f3565b610042565b005b858560405161005292919061019b565b6040518091039020336001600160a01b03167f4cf242eada3b9e58aba616be29984c12ad4b4834c512b7c09701268c607d05ce89878787874260405161009d969594939291906101d2565b60405180910390a350505050505050565b5f5f83601f8401126100be575f5ffd5b50813567ffffffffffffffff8111156100d5575f5ffd5b6020830191508360208285010111156100ec575f5ffd5b9250929050565b5f5f5f5f5f5f5f6080888a031215610109575f5ffd5b87359650602088013567ffffffffffffffff811115610126575f5ffd5b6101328a828b016100ae565b909750955050604088013567ffffffffffffffff811115610151575f5ffd5b61015d8a828b016100ae565b909550935050606088013567ffffffffffffffff81111561017c575f5ffd5b6101888a828b016100ae565b989b979a50959850939692959293505050565b818382375f9101908152919050565b81835281816020850137505f828201602090810191909152601f909101601f19169091010190565b868152608060208201525f6101eb6080830187896101aa565b82810360408401526101fe8186886101aa565b91505082606083015297965050505050505056fea264697066735822122069993afa3dea2ce8b9ac645d3f5a4ee9f2ce975a75bef56e77d68bea7266f08464736f6c634300081c0033",
  "linkReferences": {},
  "deployedLinkReferences": {},
  "immutableReferences": {},
  "inputSourceName": "project/contracts/ErnestMerkleAnchor.sol",
  "buildInfoId": "solc-0_8_28-4250211191f7a515b8714f6f274dfc82a1dbb41d"
}